{
  "_format": "hh-sol-artifact-1",
  "contractName": "Marketplace",
  "sourceName": "contracts/Marketplace.sol",
  "abi": [
    {
      "inputs": [
        {
          "internalType": "address",
          "name": "_tokenAddress",
          "type": "address"
        }
      ],
      "stateMutability": "nonpayable",
      "type": "constructor"
    },
    {
      "inputs": [
        {
          "internalType": "uint256",
          "name": "_index",
          "type": "uint256"
        }
      ],
      "name": "buyProduct",
      "outputs": [],
      "stateMutability": "payable",
      "type": "function"
    },
    {
      "inputs": [],
      "name": "getProductsLength",
      "outputs": [
        {
          "internalType": "uint256",
          "name": "",
          "type": "uint256"
        }
      ],
      "stateMutability": "view",
      "type": "function"
    },
    {
      "inputs": [
        {
          "internalType": "uint256",
          "name": "_index",
          "type": "uint256"
        }
      ],
      "name": "readProduct",
      "outputs": [
        {
          "internalType": "address payable",
          "name": "",
          "type": "address"
        },
        {
          "internalType": "string",
          "name": "",
          "type": "string"
        },
        {
          "internalType": "string",
          "name": "",
          "type": "string"
        },
        {
          "internalType": "string",
          "name": "",
          "type": "string"
        },
        {
          "internalType": "string",
          "name": "",
          "type": "string"
        },
        {
          "internalType": "uint256",
          "name": "",
          "type": "uint256"
        },
        {
          "internalType": "uint256",
          "name": "",
          "type": "uint256"
        }
      ],
      "stateMutability": "view",
      "type": "function"
    },
    {
      "inputs": [
        {
          "internalType": "string",
          "name": "_name",
          "type": "string"
        },
        {
          "internalType": "string",
          "name": "_image",
          "type": "string"
        },
        {
          "internalType": "string",
          "name": "_description",
          "type": "string"
        },
        {
          "internalType": "string",
          "name": "_location",
          "type": "string"
        },
        {
          "internalType": "uint256",
          "name": "_price",
          "type": "uint256"
        }
      ],
      "name": "writeProduct",
      "outputs": [],
      "stateMutability": "nonpayable",
      "type": "function"
    }
  ],
  "bytecode": "0x60806040526000805534801561001457600080fd5b50604051610fff380380610fff83398181016040528101906100369190610092565b80600160006101000a81548173ffffffffffffffffffffffffffffffffffffffff021916908373ffffffffffffffffffffffffffffffffffffffff16021790555050610104565b60008151905061008c816100ed565b92915050565b6000602082840312156100a457600080fd5b60006100b28482850161007d565b91505092915050565b60006100c6826100cd565b9050919050565b600073ffffffffffffffffffffffffffffffffffffffff82169050919050565b6100f6816100bb565b811461010157600080fd5b50565b610eec806101136000396000f3fe60806040526004361061003f5760003560e01c80631155dfe5146100445780638642269e1461006f5780638da8f27b1461008b578063fffa7e2e146100b4575b600080fd5b34801561005057600080fd5b506100596100f7565b6040516100669190610b8d565b60405180910390f35b610089600480360381019061008491906109a7565b610100565b005b34801561009757600080fd5b506100b260048036038101906100ad91906108d0565b610311565b005b3480156100c057600080fd5b506100db60048036038101906100d691906109a7565b610461565b6040516100ee9796959493929190610a8b565b60405180910390f35b60008054905090565b600073ffffffffffffffffffffffffffffffffffffffff166002600083815260200190815260200160002060000160009054906101000a900473ffffffffffffffffffffffffffffffffffffffff1673ffffffffffffffffffffffffffffffffffffffff1614156101a6576040517f08c379a000000000000000000000000000000000000000000000000000000000815260040161019d90610b6d565b60405180910390fd5b600160009054906101000a900473ffffffffffffffffffffffffffffffffffffffff1673ffffffffffffffffffffffffffffffffffffffff166323b872dd336002600085815260200190815260200160002060000160009054906101000a900473ffffffffffffffffffffffffffffffffffffffff1660026000868152602001908152602001600020600501546040518463ffffffff1660e01b815260040161025193929190610b16565b602060405180830381600087803b15801561026b57600080fd5b505af115801561027f573d6000803e3d6000fd5b505050506040513d601f19601f820116820180604052508101906102a391906108a7565b6102e2576040517f08c379a00000000000000000000000000000000000000000000000000000000081526004016102d990610b4d565b60405180910390fd5b60026000828152602001908152602001600020600601600081548092919061030990610d4f565b919050555050565b60006040518060e001604052803373ffffffffffffffffffffffffffffffffffffffff16815260200187815260200186815260200185815260200184815260200183815260200182815250600260008054815260200190815260200160002060008201518160000160006101000a81548173ffffffffffffffffffffffffffffffffffffffff021916908373ffffffffffffffffffffffffffffffffffffffff16021790555060208201518160010190805190602001906103d3929190610772565b5060408201518160020190805190602001906103f0929190610772565b50606082015181600301908051906020019061040d929190610772565b50608082015181600401908051906020019061042a929190610772565b5060a0820151816005015560c0820151816006015590505060008081548092919061045490610d4f565b9190505550505050505050565b60006060806060806000806002600089815260200190815260200160002060000160009054906101000a900473ffffffffffffffffffffffffffffffffffffffff16600260008a8152602001908152602001600020600101600260008b8152602001908152602001600020600201600260008c8152602001908152602001600020600301600260008d8152602001908152602001600020600401600260008e815260200190815260200160002060050154600260008f81526020019081526020016000206006015485805461053590610cec565b80601f016020809104026020016040519081016040528092919081815260200182805461056190610cec565b80156105ae5780601f10610583576101008083540402835291602001916105ae565b820191906000526020600020905b81548152906001019060200180831161059157829003601f168201915b505050505095508480546105c190610cec565b80601f01602080910402602001604051908101604052809291908181526020018280546105ed90610cec565b801561063a5780601f1061060f5761010080835404028352916020019161063a565b820191906000526020600020905b81548152906001019060200180831161061d57829003601f168201915b5050505050945083805461064d90610cec565b80601f016020809104026020016040519081016040528092919081815260200182805461067990610cec565b80156106c65780601f1061069b576101008083540402835291602001916106c6565b820191906000526020600020905b8154815290600101906020018083116106a957829003601f168201915b505050505093508280546106d990610cec565b80601f016020809104026020016040519081016040528092919081815260200182805461070590610cec565b80156107525780601f1061072757610100808354040283529160200191610752565b820191906000526020600020905b81548152906001019060200180831161073557829003601f168201915b505050505092509650965096509650965096509650919395979092949650565b82805461077e90610cec565b90600052602060002090601f0160209004810192826107a057600085556107e7565b82601f106107b957805160ff19168380011785556107e7565b828001600101855582156107e7579182015b828111156107e65782518255916020019190600101906107cb565b5b5090506107f491906107f8565b5090565b5b808211156108115760008160009055506001016107f9565b5090565b600061082861082384610bcd565b610ba8565b90508281526020810184848401111561084057600080fd5b61084b848285610caa565b509392505050565b60008151905061086281610e88565b92915050565b600082601f83011261087957600080fd5b8135610889848260208601610815565b91505092915050565b6000813590506108a181610e9f565b92915050565b6000602082840312156108b957600080fd5b60006108c784828501610853565b91505092915050565b600080600080600060a086880312156108e857600080fd5b600086013567ffffffffffffffff81111561090257600080fd5b61090e88828901610868565b955050602086013567ffffffffffffffff81111561092b57600080fd5b61093788828901610868565b945050604086013567ffffffffffffffff81111561095457600080fd5b61096088828901610868565b935050606086013567ffffffffffffffff81111561097d57600080fd5b61098988828901610868565b925050608061099a88828901610892565b9150509295509295909350565b6000602082840312156109b957600080fd5b60006109c784828501610892565b91505092915050565b6109d981610c74565b82525050565b6109e881610c2c565b82525050565b6109f781610c1a565b82525050565b6000610a0882610bfe565b610a128185610c09565b9350610a22818560208601610cb9565b610a2b81610e25565b840191505092915050565b6000610a43601083610c09565b9150610a4e82610e36565b602082019050919050565b6000610a66601683610c09565b9150610a7182610e5f565b602082019050919050565b610a8581610c6a565b82525050565b600060e082019050610aa0600083018a6109df565b8181036020830152610ab281896109fd565b90508181036040830152610ac681886109fd565b90508181036060830152610ada81876109fd565b90508181036080830152610aee81866109fd565b9050610afd60a0830185610a7c565b610b0a60c0830184610a7c565b98975050505050505050565b6000606082019050610b2b60008301866109ee565b610b3860208301856109d0565b610b456040830184610a7c565b949350505050565b60006020820190508181036000830152610b6681610a36565b9050919050565b60006020820190508181036000830152610b8681610a59565b9050919050565b6000602082019050610ba26000830184610a7c565b92915050565b6000610bb2610bc3565b9050610bbe8282610d1e565b919050565b6000604051905090565b600067ffffffffffffffff821115610be857610be7610df6565b5b610bf182610e25565b9050602081019050919050565b600081519050919050565b600082825260208201905092915050565b6000610c2582610c4a565b9050919050565b6000610c3782610c4a565b9050919050565b60008115159050919050565b600073ffffffffffffffffffffffffffffffffffffffff82169050919050565b6000819050919050565b6000610c7f82610c86565b9050919050565b6000610c9182610c98565b9050919050565b6000610ca382610c4a565b9050919050565b82818337600083830152505050565b60005b83811015610cd7578082015181840152602081019050610cbc565b83811115610ce6576000848401525b50505050565b60006002820490506001821680610d0457607f821691505b60208210811415610d1857610d17610dc7565b5b50919050565b610d2782610e25565b810181811067ffffffffffffffff82111715610d4657610d45610df6565b5b80604052505050565b6000610d5a82610c6a565b91507fffffffffffffffffffffffffffffffffffffffffffffffffffffffffffffffff821415610d8d57610d8c610d98565b5b600182019050919050565b7f4e487b7100000000000000000000000000000000000000000000000000000000600052601160045260246000fd5b7f4e487b7100000000000000000000000000000000000000000000000000000000600052602260045260246000fd5b7f4e487b7100000000000000000000000000000000000000000000000000000000600052604160045260246000fd5b6000601f19601f8301169050919050565b7f5472616e73666572206661696c65642e00000000000000000000000000000000600082015250565b7f50726f6475637420646f65736e27742065786973742e00000000000000000000600082015250565b610e9181610c3e565b8114610e9c57600080fd5b50565b610ea881610c6a565b8114610eb357600080fd5b5056fea26469706673582212204a2b77ab74613e5eeae6f2815daf6a0d127dc83b2a7b2f730555b303415f7a0e64736f6c63430008040033",
  "linkReferences": {},
  "deployedLinkReferences": {}
}